{
  "contractName": "GoodCitizenNetworkCrowdsale",
  "abi": [
    {
      "constant": true,
      "inputs": [],
      "name": "hasClosed",
      "outputs": [
        {
          "name": "",
          "type": "bool"
        }
      ],
      "payable": false,
      "stateMutability": "view",
      "type": "function"
    },
    {
      "constant": true,
      "inputs": [
        {
          "name": "",
          "type": "address"
        }
      ],
      "name": "balances",
      "outputs": [
        {
          "name": "",
          "type": "uint256"
        }
      ],
      "payable": false,
      "stateMutability": "view",
      "type": "function"
    },
    {
      "constant": true,
      "inputs": [],
      "name": "rate",
      "outputs": [
        {
          "name": "",
          "type": "uint256"
        }
      ],
      "payable": false,
      "stateMutability": "view",
      "type": "function"
    },
    {
      "constant": true,
      "inputs": [],
      "name": "cap",
      "outputs": [
        {
          "name": "",
          "type": "uint256"
        }
      ],
      "payable": false,
      "stateMutability": "view",
      "type": "function"
    },
    {
      "constant": true,
      "inputs": [],
      "name": "goal",
      "outputs": [
        {
          "name": "",
          "type": "uint256"
        }
      ],
      "payable": false,
      "stateMutability": "view",
      "type": "function"
    },
    {
      "constant": true,
      "inputs": [],
      "name": "weiRaised",
      "outputs": [
        {
          "name": "",
          "type": "uint256"
        }
      ],
      "payable": false,
      "stateMutability": "view",
      "type": "function"
    },
    {
      "constant": true,
      "inputs": [
        {
          "name": "",
          "type": "address"
        }
      ],
      "name": "contributions",
      "outputs": [
        {
          "name": "",
          "type": "uint256"
        }
      ],
      "payable": false,
      "stateMutability": "view",
      "type": "function"
    },
    {
      "constant": true,
      "inputs": [],
      "name": "closingTime",
      "outputs": [
        {
          "name": "",
          "type": "uint256"
        }
      ],
      "payable": false,
      "stateMutability": "view",
      "type": "function"
    },
    {
      "constant": false,
      "inputs": [],
      "name": "finalize",
      "outputs": [],
      "payable": false,
      "stateMutability": "nonpayable",
      "type": "function"
    },
    {
      "constant": true,
      "inputs": [],
      "name": "capReached",
      "outputs": [
        {
          "name": "",
          "type": "bool"
        }
      ],
      "payable": false,
      "stateMutability": "view",
      "type": "function"
    },
    {
      "constant": true,
      "inputs": [],
      "name": "wallet",
      "outputs": [
        {
          "name": "",
          "type": "address"
        }
      ],
      "payable": false,
      "stateMutability": "view",
      "type": "function"
    },
    {
      "constant": true,
      "inputs": [
        {
          "name": "",
          "type": "address"
        }
      ],
      "name": "caps",
      "outputs": [
        {
          "name": "",
          "type": "uint256"
        }
      ],
      "payable": false,
      "stateMutability": "view",
      "type": "function"
    },
    {
      "constant": true,
      "inputs": [],
      "name": "goalReached",
      "outputs": [
        {
          "name": "",
          "type": "bool"
        }
      ],
      "payable": false,
      "stateMutability": "view",
      "type": "function"
    },
    {
      "constant": true,
      "inputs": [
        {
          "name": "_beneficiary",
          "type": "address"
        }
      ],
      "name": "getUserCap",
      "outputs": [
        {
          "name": "",
          "type": "uint256"
        }
      ],
      "payable": false,
      "stateMutability": "view",
      "type": "function"
    },
    {
      "constant": true,
      "inputs": [],
      "name": "isFinalized",
      "outputs": [
        {
          "name": "",
          "type": "bool"
        }
      ],
      "payable": false,
      "stateMutability": "view",
      "type": "function"
    },
    {
      "constant": false,
      "inputs": [],
      "name": "withdrawTokens",
      "outputs": [],
      "payable": false,
      "stateMutability": "nonpayable",
      "type": "function"
    },
    {
      "constant": true,
      "inputs": [],
      "name": "owner",
      "outputs": [
        {
          "name": "",
          "type": "address"
        }
      ],
      "payable": false,
      "stateMutability": "view",
      "type": "function"
    },
    {
      "constant": false,
      "inputs": [
        {
          "name": "_beneficiaries",
          "type": "address[]"
        },
        {
          "name": "_cap",
          "type": "uint256"
        }
      ],
      "name": "setGroupCap",
      "outputs": [],
      "payable": false,
      "stateMutability": "nonpayable",
      "type": "function"
    },
    {
      "constant": false,
      "inputs": [],
      "name": "claimRefund",
      "outputs": [],
      "payable": false,
      "stateMutability": "nonpayable",
      "type": "function"
    },
    {
      "constant": true,
      "inputs": [],
      "name": "openingTime",
      "outputs": [
        {
          "name": "",
          "type": "uint256"
        }
      ],
      "payable": false,
      "stateMutability": "view",
      "type": "function"
    },
    {
      "constant": true,
      "inputs": [
        {
          "name": "_beneficiary",
          "type": "address"
        }
      ],
      "name": "getUserContribution",
      "outputs": [
        {
          "name": "",
          "type": "uint256"
        }
      ],
      "payable": false,
      "stateMutability": "view",
      "type": "function"
    },
    {
      "constant": false,
      "inputs": [
        {
          "name": "_beneficiary",
          "type": "address"
        },
        {
          "name": "_cap",
          "type": "uint256"
        }
      ],
      "name": "setUserCap",
      "outputs": [],
      "payable": false,
      "stateMutability": "nonpayable",
      "type": "function"
    },
    {
      "constant": false,
      "inputs": [
        {
          "name": "_beneficiary",
          "type": "address"
        }
      ],
      "name": "buyTokens",
      "outputs": [],
      "payable": true,
      "stateMutability": "payable",
      "type": "function"
    },
    {
      "constant": false,
      "inputs": [
        {
          "name": "newOwner",
          "type": "address"
        }
      ],
      "name": "transferOwnership",
      "outputs": [],
      "payable": false,
      "stateMutability": "nonpayable",
      "type": "function"
    },
    {
      "constant": true,
      "inputs": [],
      "name": "vault",
      "outputs": [
        {
          "name": "",
          "type": "address"
        }
      ],
      "payable": false,
      "stateMutability": "view",
      "type": "function"
    },
    {
      "constant": true,
      "inputs": [],
      "name": "token",
      "outputs": [
        {
          "name": "",
          "type": "address"
        }
      ],
      "payable": false,
      "stateMutability": "view",
      "type": "function"
    },
    {
      "inputs": [
        {
          "name": "_openingTime",
          "type": "uint256"
        },
        {
          "name": "_closingTime",
          "type": "uint256"
        },
        {
          "name": "_rate",
          "type": "uint256"
        },
        {
          "name": "_wallet",
          "type": "address"
        },
        {
          "name": "_cap",
          "type": "uint256"
        },
        {
          "name": "_token",
          "type": "address"
        },
        {
          "name": "_goal",
          "type": "uint256"
        }
      ],
      "payable": false,
      "stateMutability": "nonpayable",
      "type": "constructor"
    },
    {
      "payable": true,
      "stateMutability": "payable",
      "type": "fallback"
    },
    {
      "anonymous": false,
      "inputs": [],
      "name": "Finalized",
      "type": "event"
    },
    {
      "anonymous": false,
      "inputs": [
        {
          "indexed": true,
          "name": "previousOwner",
          "type": "address"
        },
        {
          "indexed": true,
          "name": "newOwner",
          "type": "address"
        }
      ],
      "name": "OwnershipTransferred",
      "type": "event"
    },
    {
      "anonymous": false,
      "inputs": [
        {
          "indexed": true,
          "name": "purchaser",
          "type": "address"
        },
        {
          "indexed": true,
          "name": "beneficiary",
          "type": "address"
        },
        {
          "indexed": false,
          "name": "value",
          "type": "uint256"
        },
        {
          "indexed": false,
          "name": "amount",
          "type": "uint256"
        }
      ],
      "name": "TokenPurchase",
      "type": "event"
    },
    {
      "constant": false,
      "inputs": [
        {
          "name": "time",
          "type": "uint256"
        }
      ],
      "name": "setClosingTime",
      "outputs": [],
      "payable": false,
      "stateMutability": "nonpayable",
      "type": "function"
    },
    {
      "constant": true,
      "inputs": [],
      "name": "getClosingTime",
      "outputs": [
        {
          "name": "",
          "type": "uint256"
        }
      ],
      "payable": false,
      "stateMutability": "view",
      "type": "function"
    },
    {
      "constant": true,
      "inputs": [
        {
          "name": "_beneficiary",
          "type": "address"
        }
      ],
      "name": "getBalanceForAddress",
      "outputs": [
        {
          "name": "",
          "type": "uint256"
        }
      ],
      "payable": false,
      "stateMutability": "view",
      "type": "function"
    }
  ],
  "bytecode": "0x60606040526000600760146101000a81548160ff02191690831515021790555034156200002b57600080fd5b60405160e0806200233f83398101604052808051906020019091908051906020019091908051906020019091908051906020019091908051906020019091908051906020019091908051906020019091905050808787858888876000831115156200009557600080fd5b600073ffffffffffffffffffffffffffffffffffffffff168273ffffffffffffffffffffffffffffffffffffffff1614151515620000d257600080fd5b600073ffffffffffffffffffffffffffffffffffffffff168173ffffffffffffffffffffffffffffffffffffffff16141515156200010f57600080fd5b8260028190555081600160006101000a81548173ffffffffffffffffffffffffffffffffffffffff021916908373ffffffffffffffffffffffffffffffffffffffff160217905550806000806101000a81548173ffffffffffffffffffffffffffffffffffffffff021916908373ffffffffffffffffffffffffffffffffffffffff160217905550505050600081111515620001aa57600080fd5b8060048190555050428210151515620001c257600080fd5b818110151515620001d257600080fd5b8160058190555080600681905550505033600760006101000a81548173ffffffffffffffffffffffffffffffffffffffff021916908373ffffffffffffffffffffffffffffffffffffffff1602179055506000811115156200023357600080fd5b600160009054906101000a900473ffffffffffffffffffffffffffffffffffffffff166200026062000312565b808273ffffffffffffffffffffffffffffffffffffffff1673ffffffffffffffffffffffffffffffffffffffff168152602001915050604051809103906000f0801515620002ad57600080fd5b600960006101000a81548173ffffffffffffffffffffffffffffffffffffffff021916908373ffffffffffffffffffffffffffffffffffffffff16021790555080600881905550508281111515156200030557600080fd5b5050505050505062000323565b604051610a7780620018c883390190565b61159580620003336000396000f300606060405260043610610175576000357c0100000000000000000000000000000000000000000000000000000000900463ffffffff1680631515bc2b1461018057806327e235e3146101ad5780632c4e722e146101fa5780632f9cb9aa14610223578063355274ea1461024c57806340193883146102755780634042b66f1461029e57806342e94c90146102c75780634b6753bc146103145780634b89c41d1461033d5780634bb278f3146103605780634f93594514610375578063521eb273146103a257806366d97b21146103f75780637d3d6522146104445780638b58c64c146104715780638d4e4083146104be5780638d8f2adb146104eb5780638da5cb5b14610500578063a31f61fc14610555578063b24046f51461058c578063b5545a3c146105d9578063b7a8807c146105ee578063bb8b2b4714610617578063c3143fe514610664578063ec8ac4d8146106a6578063f2fde38b146106d4578063fbfa77cf1461070d578063fc0c546a14610762575b61017e336107b7565b005b341561018b57600080fd5b610193610885565b604051808215151515815260200191505060405180910390f35b34156101b857600080fd5b6101e4600480803573ffffffffffffffffffffffffffffffffffffffff16906020019091905050610891565b6040518082815260200191505060405180910390f35b341561020557600080fd5b61020d6108a9565b6040518082815260200191505060405180910390f35b341561022e57600080fd5b6102366108af565b6040518082815260200191505060405180910390f35b341561025757600080fd5b61025f6108b9565b6040518082815260200191505060405180910390f35b341561028057600080fd5b6102886108bf565b6040518082815260200191505060405180910390f35b34156102a957600080fd5b6102b16108c5565b6040518082815260200191505060405180910390f35b34156102d257600080fd5b6102fe600480803573ffffffffffffffffffffffffffffffffffffffff169060200190919050506108cb565b6040518082815260200191505060405180910390f35b341561031f57600080fd5b6103276108e3565b6040518082815260200191505060405180910390f35b341561034857600080fd5b61035e60048080359060200190919050506108e9565b005b341561036b57600080fd5b61037361094f565b005b341561038057600080fd5b610388610a2b565b604051808215151515815260200191505060405180910390f35b34156103ad57600080fd5b6103b5610a3a565b604051808273ffffffffffffffffffffffffffffffffffffffff1673ffffffffffffffffffffffffffffffffffffffff16815260200191505060405180910390f35b341561040257600080fd5b61042e600480803573ffffffffffffffffffffffffffffffffffffffff16906020019091905050610a60565b6040518082815260200191505060405180910390f35b341561044f57600080fd5b610457610a78565b604051808215151515815260200191505060405180910390f35b341561047c57600080fd5b6104a8600480803573ffffffffffffffffffffffffffffffffffffffff16906020019091905050610a87565b6040518082815260200191505060405180910390f35b34156104c957600080fd5b6104d1610ad0565b604051808215151515815260200191505060405180910390f35b34156104f657600080fd5b6104fe610ae3565b005b341561050b57600080fd5b610513610b9b565b604051808273ffffffffffffffffffffffffffffffffffffffff1673ffffffffffffffffffffffffffffffffffffffff16815260200191505060405180910390f35b341561056057600080fd5b61058a60048080359060200190820180359060200191909192908035906020019091905050610bc1565b005b341561059757600080fd5b6105c3600480803573ffffffffffffffffffffffffffffffffffffffff16906020019091905050610cb0565b6040518082815260200191505060405180910390f35b34156105e457600080fd5b6105ec610cf9565b005b34156105f957600080fd5b610601610dfa565b6040518082815260200191505060405180910390f35b341561062257600080fd5b61064e600480803573ffffffffffffffffffffffffffffffffffffffff16906020019091905050610e00565b6040518082815260200191505060405180910390f35b341561066f57600080fd5b6106a4600480803573ffffffffffffffffffffffffffffffffffffffff16906020019091908035906020019091905050610e49565b005b6106d2600480803573ffffffffffffffffffffffffffffffffffffffff169060200190919050506107b7565b005b34156106df57600080fd5b61070b600480803573ffffffffffffffffffffffffffffffffffffffff16906020019091905050610eed565b005b341561071857600080fd5b610720611045565b604051808273ffffffffffffffffffffffffffffffffffffffff1673ffffffffffffffffffffffffffffffffffffffff16815260200191505060405180910390f35b341561076d57600080fd5b61077561106b565b604051808273ffffffffffffffffffffffffffffffffffffffff1673ffffffffffffffffffffffffffffffffffffffff16815260200191505060405180910390f35b6000803491506107c78383611090565b6107d082611094565b90506107e7826003546110b290919063ffffffff16565b6003819055506107f783826110d0565b8273ffffffffffffffffffffffffffffffffffffffff163373ffffffffffffffffffffffffffffffffffffffff167f623b3804fa71d67900d064613da8f94b9617215ee90799290593e1745087ad188484604051808381526020018281526020019250505060405180910390a361086e8383611169565b61087661120c565b61088083836112df565b505050565b60006006544211905090565b600c6020528060005260406000206000915090505481565b60025481565b6000600654905090565b60045481565b60085481565b60035481565b600a6020528060005260406000206000915090505481565b60065481565b600760009054906101000a900473ffffffffffffffffffffffffffffffffffffffff1673ffffffffffffffffffffffffffffffffffffffff163373ffffffffffffffffffffffffffffffffffffffff1614151561094557600080fd5b8060068190555050565b600760009054906101000a900473ffffffffffffffffffffffffffffffffffffffff1673ffffffffffffffffffffffffffffffffffffffff163373ffffffffffffffffffffffffffffffffffffffff161415156109ab57600080fd5b600760149054906101000a900460ff161515156109c757600080fd5b6109cf610885565b15156109da57600080fd5b6109e26112e3565b7f6823b073d48d6e3a7d385eeb601452d680e74bb46afe3255a7d778f3a9b1768160405160405180910390a16001600760146101000a81548160ff021916908315150217905550565b60006004546003541015905090565b600160009054906101000a900473ffffffffffffffffffffffffffffffffffffffff1681565b600b6020528060005260406000206000915090505481565b60006008546003541015905090565b6000600b60008373ffffffffffffffffffffffffffffffffffffffff1673ffffffffffffffffffffffffffffffffffffffff168152602001908152602001600020549050919050565b600760149054906101000a900460ff1681565b6000610aed610885565b1515610af857600080fd5b600c60003373ffffffffffffffffffffffffffffffffffffffff1673ffffffffffffffffffffffffffffffffffffffff168152602001908152602001600020549050600081111515610b4957600080fd5b6000600c60003373ffffffffffffffffffffffffffffffffffffffff1673ffffffffffffffffffffffffffffffffffffffff16815260200190815260200160002081905550610b983382611432565b50565b600760009054906101000a900473ffffffffffffffffffffffffffffffffffffffff1681565b6000600760009054906101000a900473ffffffffffffffffffffffffffffffffffffffff1673ffffffffffffffffffffffffffffffffffffffff163373ffffffffffffffffffffffffffffffffffffffff16141515610c1f57600080fd5b600090505b83839050811015610caa5781600b60008686858181101515610c4257fe5b9050602002013573ffffffffffffffffffffffffffffffffffffffff1673ffffffffffffffffffffffffffffffffffffffff1673ffffffffffffffffffffffffffffffffffffffff168152602001908152602001600020819055508080600101915050610c24565b50505050565b6000600c60008373ffffffffffffffffffffffffffffffffffffffff1673ffffffffffffffffffffffffffffffffffffffff168152602001908152602001600020549050919050565b600760149054906101000a900460ff161515610d1457600080fd5b610d1c610a78565b151515610d2857600080fd5b600960009054906101000a900473ffffffffffffffffffffffffffffffffffffffff1673ffffffffffffffffffffffffffffffffffffffff1663fa89401a336040518263ffffffff167c0100000000000000000000000000000000000000000000000000000000028152600401808273ffffffffffffffffffffffffffffffffffffffff1673ffffffffffffffffffffffffffffffffffffffff168152602001915050600060405180830381600087803b1515610de457600080fd5b6102c65a03f11515610df557600080fd5b505050565b60055481565b6000600a60008373ffffffffffffffffffffffffffffffffffffffff1673ffffffffffffffffffffffffffffffffffffffff168152602001908152602001600020549050919050565b600760009054906101000a900473ffffffffffffffffffffffffffffffffffffffff1673ffffffffffffffffffffffffffffffffffffffff163373ffffffffffffffffffffffffffffffffffffffff16141515610ea557600080fd5b80600b60008473ffffffffffffffffffffffffffffffffffffffff1673ffffffffffffffffffffffffffffffffffffffff168152602001908152602001600020819055505050565b600760009054906101000a900473ffffffffffffffffffffffffffffffffffffffff1673ffffffffffffffffffffffffffffffffffffffff163373ffffffffffffffffffffffffffffffffffffffff16141515610f4957600080fd5b600073ffffffffffffffffffffffffffffffffffffffff168173ffffffffffffffffffffffffffffffffffffffff1614151515610f8557600080fd5b8073ffffffffffffffffffffffffffffffffffffffff16600760009054906101000a900473ffffffffffffffffffffffffffffffffffffffff1673ffffffffffffffffffffffffffffffffffffffff167f8be0079c531659141344cd1fd0a4f28419497f9722a3daafe3b4186f6b6457e060405160405180910390a380600760006101000a81548173ffffffffffffffffffffffffffffffffffffffff021916908373ffffffffffffffffffffffffffffffffffffffff16021790555050565b600960009054906101000a900473ffffffffffffffffffffffffffffffffffffffff1681565b6000809054906101000a900473ffffffffffffffffffffffffffffffffffffffff1681565b5050565b60006110ab6002548361152890919063ffffffff16565b9050919050565b60008082840190508381101515156110c657fe5b8091505092915050565b61112281600c60008573ffffffffffffffffffffffffffffffffffffffff1673ffffffffffffffffffffffffffffffffffffffff168152602001908152602001600020546110b290919063ffffffff16565b600c60008473ffffffffffffffffffffffffffffffffffffffff1673ffffffffffffffffffffffffffffffffffffffff168152602001908152602001600020819055505050565b6111738282611563565b6111c581600a60008573ffffffffffffffffffffffffffffffffffffffff1673ffffffffffffffffffffffffffffffffffffffff168152602001908152602001600020546110b290919063ffffffff16565b600a60008473ffffffffffffffffffffffffffffffffffffffff1673ffffffffffffffffffffffffffffffffffffffff168152602001908152602001600020819055505050565b600960009054906101000a900473ffffffffffffffffffffffffffffffffffffffff1673ffffffffffffffffffffffffffffffffffffffff1663f340fa0134336040518363ffffffff167c0100000000000000000000000000000000000000000000000000000000028152600401808273ffffffffffffffffffffffffffffffffffffffff1673ffffffffffffffffffffffffffffffffffffffff1681526020019150506000604051808303818588803b15156112c857600080fd5b6125ee5a03f115156112d957600080fd5b50505050565b5050565b6112eb610a78565b1561138e57600960009054906101000a900473ffffffffffffffffffffffffffffffffffffffff1673ffffffffffffffffffffffffffffffffffffffff166343d726d66040518163ffffffff167c0100000000000000000000000000000000000000000000000000000000028152600401600060405180830381600087803b151561137557600080fd5b6102c65a03f1151561138657600080fd5b505050611428565b600960009054906101000a900473ffffffffffffffffffffffffffffffffffffffff1673ffffffffffffffffffffffffffffffffffffffff16638c52dc416040518163ffffffff167c0100000000000000000000000000000000000000000000000000000000028152600401600060405180830381600087803b151561141357600080fd5b6102c65a03f1151561142457600080fd5b5050505b611430611567565b565b6000809054906101000a900473ffffffffffffffffffffffffffffffffffffffff1673ffffffffffffffffffffffffffffffffffffffff166340c10f1983836000604051602001526040518363ffffffff167c0100000000000000000000000000000000000000000000000000000000028152600401808373ffffffffffffffffffffffffffffffffffffffff1673ffffffffffffffffffffffffffffffffffffffff16815260200182815260200192505050602060405180830381600087803b15156114fe57600080fd5b6102c65a03f1151561150f57600080fd5b50505060405180519050151561152457600080fd5b5050565b600080600084141561153d576000915061155c565b828402905082848281151561154e57fe5b0414151561155857fe5b8091505b5092915050565b5050565b5600a165627a7a72305820758c6af50c40c406ace4c096bcd4de23c4465dfb558b1261e31f57a7e2acad3500296060604052341561000f57600080fd5b604051602080610a7783398101604052808051906020019091905050336000806101000a81548173ffffffffffffffffffffffffffffffffffffffff021916908373ffffffffffffffffffffffffffffffffffffffff160217905550600073ffffffffffffffffffffffffffffffffffffffff168173ffffffffffffffffffffffffffffffffffffffff16141515156100a757600080fd5b80600260006101000a81548173ffffffffffffffffffffffffffffffffffffffff021916908373ffffffffffffffffffffffffffffffffffffffff1602179055506000600260146101000a81548160ff0219169083600281111561010757fe5b02179055505061095b8061011c6000396000f300606060405260043610610099576000357c0100000000000000000000000000000000000000000000000000000000900463ffffffff16806343d726d61461009e578063521eb273146100b35780638c52dc41146101085780638da5cb5b1461011d578063c19d93fb14610172578063cb13cddb146101a9578063f2fde38b146101f6578063f340fa011461022f578063fa89401a1461025d575b600080fd5b34156100a957600080fd5b6100b1610296565b005b34156100be57600080fd5b6100c66103ef565b604051808273ffffffffffffffffffffffffffffffffffffffff1673ffffffffffffffffffffffffffffffffffffffff16815260200191505060405180910390f35b341561011357600080fd5b61011b610415565b005b341561012857600080fd5b6101306104f6565b604051808273ffffffffffffffffffffffffffffffffffffffff1673ffffffffffffffffffffffffffffffffffffffff16815260200191505060405180910390f35b341561017d57600080fd5b61018561051b565b6040518082600281111561019557fe5b60ff16815260200191505060405180910390f35b34156101b457600080fd5b6101e0600480803573ffffffffffffffffffffffffffffffffffffffff1690602001909190505061052e565b6040518082815260200191505060405180910390f35b341561020157600080fd5b61022d600480803573ffffffffffffffffffffffffffffffffffffffff16906020019091905050610546565b005b61025b600480803573ffffffffffffffffffffffffffffffffffffffff1690602001909190505061069b565b005b341561026857600080fd5b610294600480803573ffffffffffffffffffffffffffffffffffffffff169060200190919050506107c2565b005b6000809054906101000a900473ffffffffffffffffffffffffffffffffffffffff1673ffffffffffffffffffffffffffffffffffffffff163373ffffffffffffffffffffffffffffffffffffffff161415156102f157600080fd5b600060028111156102fe57fe5b600260149054906101000a900460ff16600281111561031957fe5b14151561032557600080fd5b60028060146101000a81548160ff0219169083600281111561034357fe5b02179055507f1cdde67b72a90f19919ac732a437ac2f7a10fc128d28c2a6e525d89ce5cd9d3a60405160405180910390a1600260009054906101000a900473ffffffffffffffffffffffffffffffffffffffff1673ffffffffffffffffffffffffffffffffffffffff166108fc3073ffffffffffffffffffffffffffffffffffffffff16319081150290604051600060405180830381858888f1935050505015156103ed57600080fd5b565b600260009054906101000a900473ffffffffffffffffffffffffffffffffffffffff1681565b6000809054906101000a900473ffffffffffffffffffffffffffffffffffffffff1673ffffffffffffffffffffffffffffffffffffffff163373ffffffffffffffffffffffffffffffffffffffff1614151561047057600080fd5b6000600281111561047d57fe5b600260149054906101000a900460ff16600281111561049857fe5b1415156104a457600080fd5b6001600260146101000a81548160ff021916908360028111156104c357fe5b02179055507f599d8e5a83cffb867d051598c4d70e805d59802d8081c1c7d6dffc5b6aca2b8960405160405180910390a1565b6000809054906101000a900473ffffffffffffffffffffffffffffffffffffffff1681565b600260149054906101000a900460ff1681565b60016020528060005260406000206000915090505481565b6000809054906101000a900473ffffffffffffffffffffffffffffffffffffffff1673ffffffffffffffffffffffffffffffffffffffff163373ffffffffffffffffffffffffffffffffffffffff161415156105a157600080fd5b600073ffffffffffffffffffffffffffffffffffffffff168173ffffffffffffffffffffffffffffffffffffffff16141515156105dd57600080fd5b8073ffffffffffffffffffffffffffffffffffffffff166000809054906101000a900473ffffffffffffffffffffffffffffffffffffffff1673ffffffffffffffffffffffffffffffffffffffff167f8be0079c531659141344cd1fd0a4f28419497f9722a3daafe3b4186f6b6457e060405160405180910390a3806000806101000a81548173ffffffffffffffffffffffffffffffffffffffff021916908373ffffffffffffffffffffffffffffffffffffffff16021790555050565b6000809054906101000a900473ffffffffffffffffffffffffffffffffffffffff1673ffffffffffffffffffffffffffffffffffffffff163373ffffffffffffffffffffffffffffffffffffffff161415156106f657600080fd5b6000600281111561070357fe5b600260149054906101000a900460ff16600281111561071e57fe5b14151561072a57600080fd5b61077c34600160008473ffffffffffffffffffffffffffffffffffffffff1673ffffffffffffffffffffffffffffffffffffffff1681526020019081526020016000205461091190919063ffffffff16565b600160008373ffffffffffffffffffffffffffffffffffffffff1673ffffffffffffffffffffffffffffffffffffffff1681526020019081526020016000208190555050565b6000600160028111156107d157fe5b600260149054906101000a900460ff1660028111156107ec57fe5b1415156107f857600080fd5b600160008373ffffffffffffffffffffffffffffffffffffffff1673ffffffffffffffffffffffffffffffffffffffff1681526020019081526020016000205490506000600160008473ffffffffffffffffffffffffffffffffffffffff1673ffffffffffffffffffffffffffffffffffffffff168152602001908152602001600020819055508173ffffffffffffffffffffffffffffffffffffffff166108fc829081150290604051600060405180830381858888f1935050505015156108bf57600080fd5b8173ffffffffffffffffffffffffffffffffffffffff167fd7dee2702d63ad89917b6a4da9981c90c4d24f8c2bdfd64c604ecae57d8d0651826040518082815260200191505060405180910390a25050565b600080828401905083811015151561092557fe5b80915050929150505600a165627a7a72305820eb5ba7ef86631bf73f8571c135cfd9b4340b71b29e21a5fce00c2263fb394a7b0029",
  "source": "pragma solidity ^0.4.18;\n\nimport \"./GoodCitizenNetworkToken.sol\";\nimport \"../node_modules/zeppelin-solidity/contracts/crowdsale/validation/CappedCrowdsale.sol\";\nimport \"../node_modules/zeppelin-solidity/contracts/crowdsale/validation/IndividuallyCappedCrowdsale.sol\";\nimport \"../node_modules/zeppelin-solidity/contracts/crowdsale/distribution/RefundableCrowdsale.sol\";\nimport \"../node_modules/zeppelin-solidity/contracts/crowdsale/emission/MintedCrowdsale.sol\";\nimport \"../node_modules/zeppelin-solidity/contracts/crowdsale/distribution/PostDeliveryCrowdsale.sol\";\n\n\n\n/**\n * @title GoodCitizenNetworkCrowdsale\n * @dev This is an example of a fully fledged crowdsale.\n * The way to add new features to a base crowdsale is by multiple inheritance.\n * In this example we are providing following extensions:\n * CappedCrowdsale - sets a max boundary for raised funds\n * RefundableCrowdsale - set a min goal to be reached and returns funds if it's not met\n *\n * After adding multiple features it's good practice to run integration tests\n * to ensure that subcontracts works together as intended.\n */\ncontract GoodCitizenNetworkCrowdsale is CappedCrowdsale, RefundableCrowdsale, MintedCrowdsale, IndividuallyCappedCrowdsale, PostDeliveryCrowdsale {\n\n  // Cap for individual purchase\n  uint256 private individualCap;\n\n  modifier onlyOwner() {\n    require(msg.sender == owner);\n    _;\n  }\n\n  function GoodCitizenNetworkCrowdsale(uint256 _openingTime, uint256 _closingTime, uint256 _rate, address _wallet, uint256 _cap, MintableToken _token, uint256 _goal) public\n    Crowdsale(_rate, _wallet, _token)\n    CappedCrowdsale(_cap)\n    TimedCrowdsale(_openingTime, _closingTime)\n    RefundableCrowdsale(_goal)\n  {\n    //As goal needs to be met for a successful crowdsale\n    //the value needs to less or equal than a cap which is limit for accepted funds\n    require(_goal <= _cap);\n  }\n\n  function createTokenContract() internal returns (MintableToken) {\n    return new GoodCitizenNetworkToken(); \n  }\n\n  function _preValidatePurchase(address _beneficiary, uint256 _weiAmount) internal {\n    //require(_beneficiary != address(0));\n    //require(_weiAmount != 0);\n    //require(contributions[_beneficiary].add(_weiAmount) <= caps[_beneficiary]);\n    //require(weiRaised.add(_weiAmount) <= cap);\n  }\n\n  function setClosingTime(uint256 time) onlyOwner {\n    //require(time >= now);\n    closingTime = time;\n  }\n\n  function getClosingTime() external view returns (uint256) {\n    return closingTime;\n  }\n\n  function getBalanceForAddress(address _beneficiary) external view returns (uint256) {\n    return balances[_beneficiary];\n  }\n}\n",
  "sourcePath": "/Users/benjaminchen/Downloads/Savvy Tech Web-3/crowdsale/contracts/GoodCitizenNetworkCrowdsale.sol",
  "compiler": {
    "name": "solc",
    "version": "0.4.19+commit.c4cbbb05.Emscripten.clang"
  },
  "schemaVersion": "2.0.0",
  "updatedAt": "2018-04-05T23:53:04.267Z"
}